:020000040000FA
:100000000128831600308500FF3086008130810092
:10001000A0308B0083128501860181018C01172895
:1000200081010B11F63081000B1D14280800861D7C
:10003000202086192E20061D252006192820172885
:100040000130861C82022B2008008C1C3120080005
:100050008C18312008000C1D392008000C1D392097
:1000600008000515102005118C188C108C1C8C14A0
:1000700008008514102085100C190C110C1D0C158E
:02008000080076
:040082000034003412
:02400E00333F3E
:00000001FF
